{
  "contractName": "File",
  "abi": [
    {
      "anonymous": false,
      "inputs": [
        {
          "indexed": false,
          "internalType": "bytes32",
          "name": "_checkSum",
          "type": "bytes32"
        },
        {
          "indexed": false,
          "internalType": "string",
          "name": "_filename",
          "type": "string"
        },
        {
          "indexed": true,
          "internalType": "address",
          "name": "_setBy",
          "type": "address"
        }
      ],
      "name": "NewEvent",
      "type": "event"
    },
    {
      "inputs": [
        {
          "internalType": "bytes32",
          "name": "",
          "type": "bytes32"
        }
      ],
      "name": "myMap",
      "outputs": [
        {
          "internalType": "address",
          "name": "setBy",
          "type": "address"
        },
        {
          "internalType": "string",
          "name": "comments",
          "type": "string"
        },
        {
          "internalType": "string",
          "name": "fileName",
          "type": "string"
        },
        {
          "internalType": "bytes32",
          "name": "checkSum",
          "type": "bytes32"
        },
        {
          "internalType": "uint256",
          "name": "timeStamp",
          "type": "uint256"
        },
        {
          "internalType": "bool",
          "name": "isSet",
          "type": "bool"
        }
      ],
      "stateMutability": "view",
      "type": "function"
    },
    {
      "inputs": [
        {
          "internalType": "bytes32",
          "name": "_checkSum",
          "type": "bytes32"
        },
        {
          "internalType": "string",
          "name": "_comments",
          "type": "string"
        },
        {
          "internalType": "string",
          "name": "_filename",
          "type": "string"
        }
      ],
      "name": "addEntry",
      "outputs": [],
      "stateMutability": "nonpayable",
      "type": "function"
    },
    {
      "inputs": [
        {
          "internalType": "bytes32",
          "name": "_checkSum",
          "type": "bytes32"
        }
      ],
      "name": "viewSet",
      "outputs": [
        {
          "internalType": "string",
          "name": "",
          "type": "string"
        },
        {
          "internalType": "uint256",
          "name": "",
          "type": "uint256"
        },
        {
          "internalType": "string",
          "name": "",
          "type": "string"
        },
        {
          "internalType": "address",
          "name": "",
          "type": "address"
        }
      ],
      "stateMutability": "view",
      "type": "function"
    }
  ],
  "bytecode": "0x608060405234801561001057600080fd5b50610b07806100206000396000f3fe608060405234801561001057600080fd5b50600436106100415760003560e01c80637f58951914610046578063bce6251214610062578063c2c7e43514610097575b600080fd5b610060600480360381019061005b91906107ba565b6100ca565b005b61007c60048036038101906100779190610845565b61023c565b60405161008e9695949392919061097e565b60405180910390f35b6100b160048036038101906100ac9190610845565b6103b5565b6040516100c194939291906109ed565b60405180910390f35b60008084815260200190815260200160002060050160009054906101000a900460ff16156100f757600080fd5b600160008085815260200190815260200160002060050160006101000a81548160ff02191690831515021790555081600080858152602001908152602001600020600101908051906020019061014e929190610587565b50806000808581526020019081526020016000206002019080519060200190610178929190610587565b5042600080858152602001908152602001600020600401819055503360008085815260200190815260200160002060000160006101000a81548173ffffffffffffffffffffffffffffffffffffffff021916908373ffffffffffffffffffffffffffffffffffffffff1602179055503373ffffffffffffffffffffffffffffffffffffffff167f2b608de07d97ed236087486b97324da3c8b156d6ecae277bd8ea596bb8ca147c848360405161022f929190610a40565b60405180910390a2505050565b60006020528060005260406000206000915090508060000160009054906101000a900473ffffffffffffffffffffffffffffffffffffffff169080600101805461028590610a9f565b80601f01602080910402602001604051908101604052809291908181526020018280546102b190610a9f565b80156102fe5780601f106102d3576101008083540402835291602001916102fe565b820191906000526020600020905b8154815290600101906020018083116102e157829003601f168201915b50505050509080600201805461031390610a9f565b80601f016020809104026020016040519081016040528092919081815260200182805461033f90610a9f565b801561038c5780601f106103615761010080835404028352916020019161038c565b820191906000526020600020905b81548152906001019060200180831161036f57829003601f168201915b5050505050908060030154908060040154908060050160009054906101000a900460ff16905086565b606060006060600080600086815260200190815260200160002060050160009054906101000a900460ff16156103ea57600080fd5b6000808681526020019081526020016000206002016000808781526020019081526020016000206004015460008088815260200190815260200160002060010160008089815260200190815260200160002060000160009054906101000a900473ffffffffffffffffffffffffffffffffffffffff1683805461046c90610a9f565b80601f016020809104026020016040519081016040528092919081815260200182805461049890610a9f565b80156104e55780601f106104ba576101008083540402835291602001916104e5565b820191906000526020600020905b8154815290600101906020018083116104c857829003601f168201915b505050505093508180546104f890610a9f565b80601f016020809104026020016040519081016040528092919081815260200182805461052490610a9f565b80156105715780601f1061054657610100808354040283529160200191610571565b820191906000526020600020905b81548152906001019060200180831161055457829003601f168201915b5050505050915093509350935093509193509193565b82805461059390610a9f565b90600052602060002090601f0160209004810192826105b557600085556105fc565b82601f106105ce57805160ff19168380011785556105fc565b828001600101855582156105fc579182015b828111156105fb5782518255916020019190600101906105e0565b5b509050610609919061060d565b5090565b5b8082111561062657600081600090555060010161060e565b5090565b6000604051905090565b600080fd5b600080fd5b6000819050919050565b6106518161063e565b811461065c57600080fd5b50565b60008135905061066e81610648565b92915050565b600080fd5b600080fd5b6000601f19601f8301169050919050565b7f4e487b7100000000000000000000000000000000000000000000000000000000600052604160045260246000fd5b6106c78261067e565b810181811067ffffffffffffffff821117156106e6576106e561068f565b5b80604052505050565b60006106f961062a565b905061070582826106be565b919050565b600067ffffffffffffffff8211156107255761072461068f565b5b61072e8261067e565b9050602081019050919050565b82818337600083830152505050565b600061075d6107588461070a565b6106ef565b90508281526020810184848401111561077957610778610679565b5b61078484828561073b565b509392505050565b600082601f8301126107a1576107a0610674565b5b81356107b184826020860161074a565b91505092915050565b6000806000606084860312156107d3576107d2610634565b5b60006107e18682870161065f565b935050602084013567ffffffffffffffff81111561080257610801610639565b5b61080e8682870161078c565b925050604084013567ffffffffffffffff81111561082f5761082e610639565b5b61083b8682870161078c565b9150509250925092565b60006020828403121561085b5761085a610634565b5b60006108698482850161065f565b91505092915050565b600073ffffffffffffffffffffffffffffffffffffffff82169050919050565b600061089d82610872565b9050919050565b6108ad81610892565b82525050565b600081519050919050565b600082825260208201905092915050565b60005b838110156108ed5780820151818401526020810190506108d2565b838111156108fc576000848401525b50505050565b600061090d826108b3565b61091781856108be565b93506109278185602086016108cf565b6109308161067e565b840191505092915050565b6109448161063e565b82525050565b6000819050919050565b61095d8161094a565b82525050565b60008115159050919050565b61097881610963565b82525050565b600060c08201905061099360008301896108a4565b81810360208301526109a58188610902565b905081810360408301526109b98187610902565b90506109c8606083018661093b565b6109d56080830185610954565b6109e260a083018461096f565b979650505050505050565b60006080820190508181036000830152610a078187610902565b9050610a166020830186610954565b8181036040830152610a288185610902565b9050610a3760608301846108a4565b95945050505050565b6000604082019050610a55600083018561093b565b8181036020830152610a678184610902565b90509392505050565b7f4e487b7100000000000000000000000000000000000000000000000000000000600052602260045260246000fd5b60006002820490506001821680610ab757607f821691505b60208210811415610acb57610aca610a70565b5b5091905056fea264697066735822122049d68f9f0cf706abc6a822af0b4c5ff4daa701efd82fe2432b8fecd3e3e6acbc64736f6c634300080a0033",
  "immutableReferences": {},
  "source": "// SPDX-License-Identifier: MIT\r\npragma solidity ^0.8.10;\r\ncontract File {\r\n\r\n    struct testOne{\r\n      address setBy;\r\n      string comments;\r\n      string fileName;\r\n      bytes32 checkSum;\r\n      uint timeStamp;\r\n      bool isSet;\r\n    }\r\n\r\n    mapping (bytes32 => testOne) public myMap;\r\n\r\n\r\n    event NewEvent(bytes32 _checkSum, string _filename, address indexed _setBy);\r\n\r\n    function addEntry(bytes32 _checkSum, string memory _comments, string memory _filename) public{\r\n     require (!myMap[_checkSum].isSet);\r\n     myMap[_checkSum].isSet = true;\r\n     myMap[_checkSum].comments = _comments;\r\n     myMap[_checkSum].fileName = _filename;\r\n     (myMap[_checkSum].timeStamp = block.timestamp);\r\n     (myMap[_checkSum].setBy = msg.sender);\r\n\r\n     emit NewEvent(_checkSum, _filename, msg.sender);\r\n    }\r\n\r\n     function viewSet(bytes32 _checkSum) public view returns(string memory, uint, string memory, address){\r\n     require(!myMap[_checkSum].isSet);\r\n     return (myMap[_checkSum].fileName,  myMap[_checkSum].timeStamp,  myMap[_checkSum].comments,  myMap[_checkSum].setBy);\r\n     }\r\n\r\n\r\n    }\r\n\r\n   \r\n    \r\n\r\n\r\n\r\n\r\n\r\n    \r\n\r\n\r\n\r\n\r\n\r\n",
  "sourcePath": "C:\\Users\\pance\\truffle\\contracts\\file.sol",
  "compiler": {
    "name": "solc",
    "version": "0.8.10+commit.fc410830.Emscripten.clang"
  },
  "schemaVersion": "3.4.3",
  "updatedAt": "2021-12-09T06:13:33.732Z",
  "devdoc": {
    "kind": "dev",
    "methods": {},
    "version": 1
  },
  "userdoc": {
    "kind": "user",
    "methods": {},
    "version": 1
  }
}